:02000000342B9F
:100006000F3083120313FC004730FD00FD0B092857
:0A001600FC0B0928000000000800A0
:0E002000213083120313FD00FD0B142808008D
:06002E00000000000800C4
:1000340083120317901B2128031308132328031387
:1000440008170317101B2928031388122B280313DE
:1000540088160317901A3128031308123328031340
:1000640008160317101A3928031388113B280313A1
:1000740088158316691841288312081443288312AB
:100084000810881417208810031790194C2803139C
:1000940008134E28031308170317101954280313C1
:1000A4008812562803138816031790185C28031324
:1000B40008125E2803130816031710186428031384
:1000C4008811662803138815831669186C2883120F
:1000D40008146E28831208108814172088108316B9
:0C00E400691C76280320772810200800F3
:1000F0008316031369106F088312031790001A20E8
:06010000831669140800DB
:0E010600831603135F088A005E08820008005B
:10011400831203138601061C9628861C9628061D46
:100124009628861D96288D288312061CA028861CD6
:10013400A028061DA028861DA02877290612861748
:10014400861BA6280613A7280617061BAB288612AB
:10015400AC288616061CC428861CC4280619B42894
:100164007214B52872108619B9280314BA2803101A
:100174007218C0280318C0287210C128721472188B
:10018400C428D4280230FB000430FC00BA30FD003F
:10019400FD0BCA28FC0BCA28FB0BCA2800008316D7
:1001A400E0017729831286128617861BDB28061343
:1001B400DC280617061BE0280612E1280616061C92
:1001C400F928861CF9280619E9287214EA287210FD
:1001D4008619EE280314EF2803107218F528031863
:1001E400F5287210F62872147218F9280A290230B8
:1001F400FB000430FC00BA30FD00FD0BFF28FC0BB3
:10020400FF28FB0BFF28000001308316E00077294C
:10021400831206138617861B112906121229061645
:10022400061A1629861217298616061C2F29861CDB
:100234002F2906191F2972142029721086192429BE
:1002440003142529031072182B2903182B29721063
:100254002C29721472182F2940290230FB00043013
:10026400FC00BA30FD00FD0B3529FC0B3529FB0BD6
:100274003529000002308316E000772983128613A3
:100284000617061B4729861248298616861A4C2902
:1002940006124D290616061C6529861C65290619B1
:1002A400552972145629721086195A2903145B2988
:1002B40003107218612903186129721062297214DB
:1002C4007218652976290230FB000430FC00BA302C
:1002D400FD00FD0B6B29FC0B6B29FB0B6B2900004C
:1002E40003308316E0007729962883120618902994
:1002F400861C9029061D9029861D90290230FB003A
:100304000430FC00BA30FD00FD0B8629FC0B862965
:10031400FB0B862900008316E101DD298312061CEC
:10032400AA298618AA29061DAA29861DAA290230E7
:10033400FB000430FC00BA30FD00FD0B9F29FC0BD0
:100344009F29FB0B9F29000001308316E100DD2962
:100354008312061CC429861CC4290619C429861DB7
:10036400C4290230FB000430FC00BA30FD00FD0B50
:10037400B929FC0BB929FB0BB929000002308316FB
:10038400E100DD298312061CDD29861CDD29061DFA
:10039400DD298619DD290230FB000430FC00BA3067
:1003A400FD00FD0BD329FC0BD329FB0BD329000043
:1003B40004308316E1008312061CE729861CE72912
:1003C400061DE729861DE729E829DD29831660082B
:1003D400F000F00D7010F00D70103930F007610866
:0A03E400700784000008F000080014
:1003EE00F9308316031387050C30831297000C30F7
:0E03FE009D0007309204F9308316920008002B
:10040C005A30831603136B07F3006C080318013E74
:10041C00F4000330F2007308F0007408F100720865
:10042C0003191D2AF00DF10D7010FF3E162AF43041
:10043C007007F30071080318013E013EF4007308C5
:10044C00F0007408F100F10CF00CF113711BF117B2
:10045C00F10CF00CF113711BF1177008831295005D
:10046C00CF301705F50003307305F2007208F00069
:10047C00F00D7010F00D7010F00D7010F00D70107C
:10048C007008750497000330FB000830FC007730CF
:10049C00FD00FD0B4F2AFC0B4F2AFB0B4F2A0800CB
:1004AC00682A803083160313EB007B2AC030EB00E4
:1004BC007B2A9430EB007B2AD430EB007B2A8030F3
:1004CC00EB007B2A831603136B08013A0319572A96
:1004DC006B08023A03195C2A6B08033A03195F2A6A
:1004EC006B08043A0319622A652A6C03F0006B0846
:1004FC00F0077008EB0070088312031790001A20A5
:10050C0083166910EE016E086D078400000803194C
:10051C00972A6E086D0784000008EF007820EE0A19
:06052C00892A6914080091
:1005320083208A110A128000840ADE0A0319DF0A64
:08054200F003031D992A0800D3
:0E054A000030831203138C1A0130F0000800F9
:10055800831203131A08F100981CB42A18121816EB
:060568007108F00008001C
:10056E00053083120313EC000030ED006D08003CE3
:10057E00031DC32A6C08003C0318E42A87140230BA
:10058E00FB000430FC00BA30FD00FD0BCC2AFC0B46
:10059E00CC2AFB0BCC2A0000FD3087058230FC00F4
:1005AE00DD30FD00FD0BD92AFC0BD92A000000001E
:0C05BE000130EC02031CED03BD2A080014
:1005CA00831603138810081088110812881208135A
:1005DA008312881008100813881208128811032041
:1005EA000320032008168815881417208810032072
:1005FA0088141720881003208814172088100320D5
:10060A00881188141720881003208814172088104E
:10061A000812081788141720881003200813881551
:10062A00881417208810881188141720881003202E
:10063A00881417208810881588141720881003201A
:10064A008811881417208810081788160816881524
:0E065A008814172088100320831669140800E6
:100668003625E52201308312031790001A200C303A
:10067800031790001A20F721813087008312870121
:100688000F30831686007F308105EB01EC010622CE
:100698008312013007058316E300E4010030E40506
:1006A8000030E400831663086404031DA32C0130A2
:1006B800EB000130EC005830ED0056220B30FB0007
:1006C8002630FC005D30FD00FD0B682BFC0B682B11
:1006D800FB0B682B000000000130EB000130EC0040
:1006E8004930ED005622A5227008031D7C2B772B7C
:1006F800A52270080319A22CAC2270088316E20008
:100708007008313A031D852C0130831203179000BD
:100718001A2001308316EB000130EC003030ED0078
:1007280056221030FB003930FC000D30FD00FD0B67
:100738009B2BFC0B9B2BFB0B9B2B00000000013021
:100748008312031790001A2001308316EB00013042
:10075800EC002030ED005622DC01DD0100305D02A6
:10076800031DB82B05305C020318CD2B8A207008B6
:10077800EA005C08E53E8400700880000130EB0068
:100788005C08EC006E30ED005622DC0A0319DD0A25
:10079800B22B6608313A031DDF2B6708323A03197A
:1007A800DE2B6808333A0319DE2B6908343A03193B
:1007B800DE2BDF2B472C8312EC0A0319ED0A0130DC
:1007C800031790001A2001308316EB000130EC006B
:1007D8006230ED0056220230EB000130EC00A03010
:1007E800ED0056220B30FB002630FC005D30FD008A
:1007F800FD0BFC2BFC0BFC2BFB0BFC2B0000000067
:1008080001308312031790001A2001308316EB0081
:100818000130EC002030ED005622003083126D06C6
:10082800031D182C03306C06031D282C01300317F8
:1008380090001A2002308316EB000130EC00C4301F
:10084800ED005622B722472C8316DC01DD0100306B
:100858005D02031D312C05305C020318462C8A20EA
:100868007008EA005C08E53E8400700880000130EA
:10087800EB005C08EC006E30ED005622DC0A031930
:10088800DD0A2B2CCD2B01308312031790001A2080
:1008980001308316EB000130EC00D430ED00562215
:1008A8001030FB003930FC000D30FD00FD0B5A2CD8
:1008B800FC0B5A2CFB0B5A2C000000000130831251
:1008C800031790001A2001308316EB000130EC006A
:1008D800B730ED0056225A30EB000030EC0006220B
:1008E8002930FB009630FC007F30FD00FD0B7A2C90
:1008F800FC0B7A2CFB0B7A2C8316EB01EC010622FD
:10090800982C83166208303A031D982C0130831204
:10091800031790001A2001308316EB000130EC0019
:10092800AA30ED005622A32C013083120705831646
:10093800E300E4010030E4050030E400562B4C2BC2
:02094800A42CDD
:100A6C00203084004C3083120313F000AA3083161C
:100A7C00DE000430DF009922A03084000A3083129B
:100A8C00F00028308316DE000530DF0099226C3030
:100A9C00840004308312F00032308316DE000530FF
:100AAC00DF009922AA30840032308312F000F63035
:0C0ABC008316DE000430DF0099220800E1
:1009540045344E34543445345234203450344134C4
:100964005334533457344F34523444343A340034C7
:100974005634453452344934463449344534443485
:0209840000343D
:100986003134323433344134343435343634423409
:1009960037343834393443342A3430342334443405
:1009A60043344834453443344B3449344E34473465
:0E09B6002034493444342E342E342E34003490
:1009C400573445344C3443344F344D344534213456
:0409D4002134003496
:1009D80049344E3443344F3452345234453443341A
:0409E800543400344F
:1009EC004E344F3454342034563445345234493414
:0A09FC0046344934453444340034D5
:100A06004F34503445344E3449344E344734203410
:0A0A160044344F344F34523400349E
:100A20004834413443344B34453452342034443414
:100A30004534543445344334543445344434003418
:100A400043344F34523452344534433454340034F4
:100A500054345234593420344134473441344934C5
:040A60004E340034DC
:040A64000034003426
:040A68002A340034F8
:02400E004A2F37
:00000001FF
